:100000009BC00000B4C00000B2C00000B0C000003F
:10001000AEC00000ACC00000AAC00000A8C0000034
:10002000A6C00000A4C00000A2C0000097C4000049
:100030009EC000009CC000009AC0000098C0000054
:1000400096C0000094C0000092C0000090C0000064
:100050008EC000008CC000008AC000002FC10000CC
:1000600086C0000084C0000082C0000080C0000084
:100070007EC00000140348004F00520049005000A9
:10008000410044002000530000001C0348004F00C2
:1000900052004900200043004F002E002C004C006D
:1000A000540044002E000000040309040902290042
:1000B000010100807D090400000203000000092105
:1000C0001101000122500007050203400005070549
:1000D000810340000512010002000000400D0FC125
:1000E0000072050102000105010905A101150025A5
:1000F00001350045017501950E05091901290E818B
:10010000029502810105012507463B017504950111
:1001100065140939814265009501810126FF004679
:10012000FF0009300931093209357508950481024B
:10013000750895018101C00011241FBECFEFD2E0E8
:10014000DEBFCDBF11E0A0E0B1E0E6EDFDE002C012
:1001500005900D92A230B107D9F721E0A2E0B1E0FD
:1001600001C01D92A932B207E1F7B8D132C648CF1B
:10017000CF93DF9300D000D0CDB7DEB79C011092B3
:10018000C80086E08093CA001092CB00C90137FDF9
:10019000019695958795092E000CAA0BBB0BAC0117
:1001A000BD01405C5D4B604F7F4F49835A836B8339
:1001B0007C83032E000C440B550B69817A818B8163
:1001C0009C81E5D5215031093093CD002093CC009E
:1001D00088E18093C900539A5A9A0F900F900F901C
:1001E0000F90DF91CF91089584B7877F84BF0FB6BA
:1001F000F894A895809160008861809360001092C7
:1002000060000FBE0895E9ECF0E080818F77808375
:100210000895E9ECF0E080818068808308959091F2
:10022000C80095FFFCCF8093CE0008958091C80050
:1002300087FFFCCF8091CE0008959C01DA01832FC7
:10024000992783309105B9F060F48130910561F10F
:100250000297E1F489E290E02CEA30E02D933C93A0
:1002600008958132910529F1829781F480E590E02B
:1002700027EE30E0F3CFC9019927213061F08230B9
:10028000910579F0E8EAF0E0892B39F090E080E020
:1002900030E020E0E3CFEAE8F0E0849190E09F01D5
:1002A000DDCFE4E7F0E0F9CF82E190E025ED30E04A
:1002B000D5CF89E090E02EEB30E0D0CF1F920F92A7
:1002C0000FB60F9211242F933F934F935F936F9329
:1002D0007F938F939F93AF93BF93CF93EF93FF93AE
:1002E000A5DFC82F809100018130B9F4C33351F4E8
:1002F00082E0809300018CEC92DF809100018330DA
:1003000071F503C083E080930001CF3F41F581E0A8
:10031000809300018FEF83DF22C0823031F4CC3C28
:1003200089F71092000183E3E7CF8111E6CFE091D6
:10033000130190911201E83020F581E08E0F809337
:100340001301F0E0E65FFE4FC0839C27C8E087E022
:10035000990F08F49827CA95D9F790931201FF9145
:10036000EF91CF91BF91AF919F918F917F916F91BD
:100370005F914F913F912F910F900FBE0F901F9063
:100380001895C91769F082E9CF3F21F481E0809385
:1003900000018FEF44DF1092130110921201ADCFD4
:1003A00080910A0190910B019827892798279093B3
:1003B00015018093140180910C01809316018091A6
:1003C0000D018093170180910E0180931801809197
:1003D0000F01809319018091100180931A0180917F
:1003E000110180931B01D7CFFFDE80E890E00FB6AC
:1003F000F89480936100909361000FBE80E09BE4CD
:10040000B7DE9DC20895089542E360EC82E0DAD140
:1004100042E361EC81E0D6C10895CF93DF93CDB77D
:10042000DEB728970FB6F894DEBF0FBECDBF809120
:100430002001843009F03FC082E08093E900809180
:10044000E80082FF12C08091E80085FF09C050E0FB
:1004500040E067E070E0CE010196B3D08111F7CFA4
:100460008091E8008B778093E80081E08093E90039
:100470008091E80080FF1FC0C6DE809100018111DD
:1004800023C088E0E4E1F1E0DE01119601900D92D5
:100490008A95E1F780E9C3DEBCDE50E040E068E029
:1004A00070E0CE0101963FD08111F7CF8091E80036
:1004B0008E778093E80028960FB6F894DEBF0FBEC3
:1004C000CDBFDF91CF91089588E0E2E0F1E0DE0159
:1004D000119601900D928A95E1F7DECF88E0E2E077
:1004E000F1E0DF01982F1D929A95E9F790E890933B
:1004F0000501909306019093070190930801809362
:100500000401A4E1B1E001900D928A95E1F7EAE0DF
:10051000F1E08AE0DF011D928A95E9F765DF7894C2
:100520007CDF1BD4FDCFAF92BF92CF92DF92FF92C0
:100530000F931F93CF93DF936C01EB018A0195D149
:10054000F82E811124C00115110539F0F8018081C0
:100550009181C81BD90BC80ED91EB12CA12C209794
:10056000B1F08091E80085FD22C08091E8008E778F
:100570008093E800F2D301151105A1F0F801808104
:100580009181A80EB91EB182A08285E0F82E8F2D30
:10059000DF91CF911F910F91FF90DF90CF90BF908F
:1005A000AF90089562D18823D1F2F82EF0CFF601F2
:1005B00081916F018093F1002197FFEFAF1ABF0A7D
:1005C000CECFAF92BF92CF92DF92FF920F931F9345
:1005D000CF93DF936C01EB018A0147D1F82E811193
:1005E00024C00115110539F0F80180819181C81BE3
:1005F000D90BC80ED91EB12CA12C2097B1F0809137
:10060000E80085FD22C08091E8008B778093E800A8
:10061000A4D301151105A1F0F80180819181A80EE4
:10062000B91EB182A08285E0F82E8F2DDF91CF9187
:100630001F910F91FF90DF90CF90BF90AF900895E2
:1006400014D18823D1F2F82EF0CF8091F100F60179
:1006500081936F012197FFEFAF1ABF0ACECFFC0144
:10066000CB0120912701309128012617370790F000
:10067000009729F42091E8002E772093E80040E0CD
:10068000009751F4411108C08091E80082FF30C00A
:1006900080E00895C901F3CF209120012223A1F128
:1006A0002530A1F12091E80023FD2CC02091E80025
:1006B00022FDEACF2091E80020FFE2CF2091F20056
:1006C00030E0009719F02034310558F041E0203433
:1006D000310509F040E02091E8002E772093E800F2
:1006E000CFCF41914093F10001972F5F3F4FE9CF6A
:1006F00080912001882341F0853041F08091E8000D
:1007000083FFC2CF81E0089582E0089583E00895D9
:10071000FC01CB01209127013091280126173707D2
:1007200090F0009729F42091E8002E772093E800BC
:1007300040E0009751F4411108C08091E80082FF29
:1007400031C080E00895C901F3CF20912001222318
:10075000A9F12530A9F12091E80023FD2DC02091B9
:10076000E80022FDEACF2091E80020FFE2CF2091AF
:10077000F20030E0009719F02034310558F041E0E4
:100780002034310509F040E02091E8002E772093D5
:10079000E800CFCF44914093F100319601972F5F4D
:1007A0003F4FE8CF80912001882341F0853041F010
:1007B0008091E80083FFC1CF81E0089582E0089531
:1007C00083E00895982F953028F08F708093E9008A
:1007D00081E008959093E900242F762F50E0981738
:1007E00031F07091EC002091ED005091F00021FD6E
:1007F00002C09F5FE8CF3091EB003E7F3093EB006B
:100800003091ED003D7F3093ED003091EB00316091
:100810003093EB007093EC002093ED005093F000C8
:100820002091EE0027FDE5CF80E008958091210121
:1008300087FF13C08091E80082FF06C08091E80026
:100840008B778093E80004C0809120018111F2CF62
:100850000895809120018823D9F38091E80080FFDA
:10086000F8CF8091E8008E77ECCF2091E4003091B2
:10087000E50095E6A9012091EC00822F817020FF10
:1008800006C08091E80080FF06C080E008952091B6
:10089000E80022FD1AC080912001882389F085306C
:1008A00089F08091EB0085FD0FC02091E40030912C
:1008B000E50042175307F9F29150E1F684E00895FC
:1008C00082E0089583E0089581E0089541D043D007
:1008D0008091D8008F778093D8008091D80080686D
:1008E0008093D8008091D8008F7D8093D80084E0D9
:1008F00089BD86E089BD09B400FEFDCF10922001BC
:1009000010921C0110921E0110921D0142E360E042
:1009100080E058DF8091E1008E7F8093E10080913C
:10092000E20081608093E2008091E2008860809321
:10093000E2008091E0008E7F8093E0000895E3E67E
:10094000F0E080818E7F808381E080931F01BECFA5
:100950001092E20008951092E10008951F920F9204
:100960000FB60F9211242F933F934F935F936F9382
:100970007F938F939F93AF93BF93EF93FF93809158
:10098000E10082FF0AC08091E20082FF06C08091F0
:10099000E1008B7F8093E100DFD18091E10080FF57
:1009A00017C08091E20080FF13C08091E2008E7F2B
:1009B0008093E2008091E20080618093E200809168
:1009C000D80080628093D80019BC109220011BDDF2
:1009D0008091E10084FF27C08091E20084FF23C062
:1009E00084E089BD86E089BD09B400FEFDCF809119
:1009F000D8008F7D8093D8008091E1008F7E809316
:100A0000E1008091E2008F7E8093E2008091E2001D
:100A100081608093E20080911C018823D9F184E0F9
:100A200080932001EFDC8091E10083FF22C0809160
:100A3000E20083FF1EC08091E100877F8093E10088
:100A400082E08093200110921C018091E1008E7F52
:100A50008093E1008091E2008E7F8093E20080919C
:100A6000E20080618093E20042E360E080E0AADE81
:100A700073D1FF91EF91BF91AF919F918F917F9132
:100A80006F915F914F913F912F910F900FBE0F90FB
:100A90001F9018958091E30087FD02C081E0C0CFD0
:100AA00083E0BECF1F93CF93DF93CDB7DEB7AA9776
:100AB0000FB6F894DEBF0FBECDBF81E291E0FC011E
:100AC00001962091F100208321E089329207B9F745
:100AD000A3DC8091E80083FF10C0809121019091F8
:100AE0002201953009F4C2C000F5292F2D7F213055
:100AF00009F489C0992309F45EC08091E80083FF5E
:100B00000AC08091E800877F8093E8008091EB0025
:100B100080628093EB00AA960FB6F894DEBF0FBEFA
:100B2000CDBFDF91CF911F910895983009F4D5C0C2
:100B3000993009F4DFC0963001F780588230E8F62A
:100B400080912301909124018C3D23E0920709F0CC
:100B5000AFC083E08A838AE289834FB7F894DE01CD
:100B6000139620E03EE051E2E32FF0E0509357006F
:100B7000E49120FF03C0E295EF703F5FEF708E2F8E
:100B800090E0EA3008F492C0C7968D939D932F5F52
:100B9000243151F74FBF8091E800877F8093E800B0
:100BA0006AE270E0CE0101965ADD8091E8008B7711
:100BB0008093E800A2CF803899F0823809F09DCF69
:100BC000809125018F70853008F097CF8093E900E0
:100BD0008091EB0085FB882780F91092E90006C020
:100BE00080911D0190911E01911182609091E80009
:100BF000977F9093E8008093F1001092F10080912C
:100C0000E8008E77A5C0882309F492C0823009F0ED
:100C100074CF80912301811196C0809125018F703E
:100C20002FEF280F243008F068CF8093E90020913F
:100C3000EB0020FF88C0933031F48091EB0080629C
:100C40008093EB0080C09091EB0090619093EB005B
:100C500021E030E001C0220F8A95EAF72093EA00F4
:100C60001092EA008091EB008860EACF811145CFB5
:100C7000109123011F778091E3008078812B80936E
:100C8000E3008091E800877F8093E800CFDD8091CA
:100C9000E80080FFFCCF8091E30080688093E30050
:100CA00082E0111183E08093200127CFC0966DCFA1
:100CB0006091250170912601AE014F5F5F4FBDDA53
:100CC000BC01892B09F419CF8091E800877F8093BC
:100CD000E80089819A811CDD68CF803809F00DCF4A
:100CE0008091E800877F8093E80080911C018093C9
:100CF000F10085CF811101CF90912301923008F04E
:100D0000FCCE8091E800877F8093E80090931C01DF
:100D10008DDD80911C01882311F084E005C0809155
:100D2000E30087FDFACF81E0809320016DDBE5CE03
:100D300080912301813009F0E0CE81E0933009F009
:100D400080E080931E011092E9008091E800877F87
:100D50008093E8006BDDD1CE0895CF938091200180
:100D6000882399F0C091E900CF709091EC00892F11
:100D7000817090FD80E8C82B1092E9008091E80016
:100D800083FD90DECF70C093E900CF910895A1E27A
:100D90001A2EAA1BBB1BFD010DC0AA1FBB1FEE1FF5
:100DA000FF1FA217B307E407F50720F0A21BB30B40
:100DB000E40BF50B661F771F881F991F1A9469F7BC
:100DC00060957095809590959B01AC01BD01CF0118
:060DD0000895F894FFCF26
:020DD600030018
:00000001FF
